:1000000010308A0000280000FF00030E8301A100C9
:100010000A08A0008A010408A2007708A300780853
:10002000A4007908A5007A08A600831383128C30F7
:100030008400801E1D288C1A32288B1E21280B1943
:100040003528220884002308F7002408F800250832
:10005000F9002608FA0020088A00210E8300FF0E0E
:100060007F0E09008A110A12412A8A110A122E2AC9
:100070000A108A100A1182074B3468346F346E34C8
:10008000673420347434683461346E346834203416
:1000900063346F346E34673400340A108A100A11E6
:1000A0008207413454342B3443345534533444346C
:1000B0003D34313400340A108A100A118207413469
:1000C00054342B3443345534533444343D34313474
:1000D0002C3422342A343134303431342334223431
:1000E00000340A108A100A118207413454342B3428
:1000F00043345534533444343D3431342C34223475
:100100002A343134303432342334223400340A1067
:100110008A100A11820753346134693420346334FD
:1001200075342034703468346134703400340A100B
:100130008A100A118207443453343A3400340A10C6
:100140008A100A118207413454342B3443344E341C
:100150004D3449343D3432342C3432342C34303440
:100160002C3430342C34303400340A108A100A1104
:100170008207413454342B3443344D3447344434AF
:100180003D34313400340A108A100A118207413498
:1001900054342B3443344D34473444343D343134B7
:1001A0002C34323400340A108A100A118207713458
:1001B000753465346E346D346B3400340A108A1033
:1001C0000A11E53E03188A0A8200443461346E3411
:1001D00068342034733461346334683420346E34CA
:1001E000673475346F346934203464346934653469
:1001F000753420346B346834693465346E3420349B
:100200006B3468346F346E3467342034643475343E
:100210006F346334203471347534613420343534B0
:1002200020346E34673475346F3469342C342034A0
:1002300078346F346134203462346F347434203451
:1002400073346F3420346434693465346E3420344C
:10025000743468346F346134693400340A148A1099
:100260000A1182074B3468346F346E34673420349B
:10027000643475346E346734203473346F3420340E
:100280006434693465346E342034743468346F34C3
:100290006134693400340A148A100A118207443424
:1002A000613420347434683465346D343A34003445
:1002B0000A148A100A1182074434613420347834D5
:1002C0006F3461343A34203400340A148A100A112D
:1002D000820744346F342034643461346934203408
:1002E0006D346134743420346B3468346134753463
:1002F00020346C3461342034363420346B34793417
:1003000020347434753400340A148A100A118207B8
:1003100053346134693420346D346134743420349E
:100320006B3468346134753400340A148A100A114D
:10033000820744346F34693420346D34613474344A
:1003400020346B3468346134753420347434683448
:1003500061346E346834203463346F346E346734FF
:1003600000340A148A100A11820744346F34693445
:100370002034613464346D3469346E342034743420
:10038000683461346E346834203463346F346E34CE
:10039000673400340A148A100A11820778346F34E3
:1003A000613468346534743400340A148A100A11D4
:1003B0008207413454342B3443344C344334433473
:1003C00000340A148A100A1182072B3443344C3447
:1003D000433443343A34203431342C3431342C34E3
:1003E00034342C3430342C34303400340A148A1031
:1003F0000A11FD3E03188A0A8200413454342B341A
:1004000043344D34453445343D34303400340A10DF
:100410008A140A118207413454342B3443344D3446
:10042000473446343D3431340034412AC8060A008A
:10043000412AAB21CD23D31E2200412AC8060A003F
:10044000412A45180D050000412A26230D0500000C
:10045000412A0D050001412A0D05000083166B0895
:10046000273C031C352AEB0A3A2AEB010830831299
:10047000860683160030F80083120B118A110A12C7
:1004800021288C1E412A1A08FA018316E7007A08EF
:10049000E8007008353C031C592A29307007840095
:1004A000831367088000F00A2930700784008313E3
:1004B000800167082B3C031D622AE808031D622A9D
:1004C0000130F400740B6D2A6708433C031D6D2A4C
:1004D000E808031D6D2A0230F4007408023C031D75
:1004E0007A2A67084D3C031D7A2AE808031D7A2AF8
:1004F0000330F4007408033C031D872A6708543C4A
:10050000031D872AE808031D872A0430F4007408B5
:10051000043C031D8F2AF001FE01FD01F4017D085A
:10052000063C031DAB2A67083B3C031D9B2AE808D9
:10053000031D9B2AF3017E08183C031CAB2AA03044
:100540007E078400831367088000FE0AA0307E07C0
:100550008400831380016708223C031DB22AE80847
:100560000319FD0A83128C128A110A122128412ACA
:10057000AB21CD23C4203D11C4224C10D2224122F4
:10058000A2060A006C308400831700080319D52ADC
:100590000630F800F701F70BCB2AF80BCA2A7B309C
:1005A000F700F70BD12A800BC82A0800831603171F
:1005B0008C170C140000000083120C087F390319FB
:1005C000102BEB000D08EC000F08ED006B08031377
:1005D0000C1EE82A990003176C088D006D088F0027
:1005E00083168C170C140000000083120C0D0E0DE6
:1005F0007F390319102BEB000D08EC000F08ED00FC
:100600006B0803130C1E022B990003176C088D0056
:100610006D088F008D0A03198F0A0313D62A03175A
:1006200003130800800803192F2B0317EC0104089B
:10063000EB006C10831B6C14000803130C1E1E2BA4
:10064000990003176B08840083136C188317840ABE
:10065000031D2D2B0313850A03170313122B080008
:10066000F001A901F10171080F3C031C3F2B603020
:1006700071078400831320308000F10A332B04308B
:100680000317B300C830EC000313C2220317B30BE7
:10069000422B31088400831332188317031312236B
:1006A0000D300C1E512B99000A300C1E552B990051
:1006B000080003179C0803199F2BF9010A30F80062
:1006C0001D30840083177908031307228000F90A7C
:1006D000840AF80B6C2B6E2B0317632B0130031766
:1006E000B2001D30B10003133023F9010A30F800C5
:1006F0001D30840083177908F6218000F90A840AE6
:10070000F80B7B2B01300317B2001D30B10003132F
:100710003023F9011230F8001D3084008317790866
:100720009F208000F90A840AF80B8F2B01300317F1
:10073000B2001D30B10003133023B92B031704306E
:10074000AF00C830EC000313C2220317AF0BA12B7C
:1007500024308D0002308F000313D622043003179B
:10076000AF00FA30EC000313C2220317AF0BB12B1A
:1007700003130800083003179C00FA30EC00031341
:10078000C22203179C0BBD2B28308D0002308F0036
:100790000313D622043003179C00FA30EC00031335
:1007A000C22203179C0BCD2B2B308D0002308F0003
:1007B0000313D622043003179C00FA30EC00031315
:1007C000C22203179C0BDD2B9C01031359238A11B2
:1007D0000A166A28203003178D0002308F00031399
:1007E000D622043003179C00C830EC000313C22249
:1007F00003179C0BF42B03138A110A166D28031799
:10080000EA01F101670871020318192C71086507E4
:100810008400831366188317680800020319EA0A24
:1008200069086A02031D172C7108F8001B2CF10AD5
:10083000022C0030F800031308000317E1016008E0
:10084000610203183D2C61085E07840083135F1862
:100850008317800161085E07840083135F18831784
:1008600061085D07E40064088D0083168C130C1486
:1008700083120C088000E10A1F2C60085E078400C8
:1008800083135F18831780010313080003179C016B
:10089000E6012930E5003730E7002230E80001307A
:1008A000E9000313FF237808F5000317E601293058
:1008B000E5003730E7002230E8000230E90003139A
:1008C000FF237808F6007608750203180F2D013013
:1008D0007507F1007608710203188B2C75087102F8
:1008E000FF3E603EF800FA010318FA0A7808031781
:1008F0009D007A089E002930710784008313000848
:100900009F001D08840083131E1883171F08800092
:10091000F10A03136A2C0330F10071080F3C031C29
:10092000BA2C02307102C03EF800FA010318FA0A2C
:10093000780803179D007A089E00603071078400D4
:10094000831300089F001D08840083131E1883175B
:100950001F08800060307107840083130008203C6A
:10096000031DB72C60307107840083138001F10AE6
:1009700003138D2C30308316C000FC018312031743
:10098000DD01DF01BA30DE000530E00003131D2475
:10099000F1017108043C031C0F2DBA30710784006B
:1009A00083130008313C031D0D2D01307107F70042
:1009B000770E03179D00F0309D051D08DD00DF0157
:1009C000D030DE000F30E00003131D2403179C011C
:1009D0001C080E3C031C0C2DC0301C078400831324
:1009E00000089D00D0301C078400831300081D02FE
:1009F000031D092DD0301C07840083130008203C00
:100A0000031D082D01307107FC000130F800122D84
:100A10000A2D0C2D9C0AE82C0313F10AC92C003076
:100A2000F800031703138A110A16AE2803173508B6
:100A3000FA003408840083137A1883178008031996
:100A4000612D3508B9003408B8003708BB003608F6
:100A5000BA003B08FA003A08840083137A18831717
:100A6000800803194E2D3908FA00380884008313D2
:100A70007A1883170008BC003B08FA003A08840083
:100A800083137A18831700083C02031D4E2DB80A01
:100A90000319B90ABA0A0319BB0A292D3B08FA003F
:100AA0003A08840083137A1883178008031D5D2D8C
:100AB0003408F8003508F900642DB40A0319B50AA2
:100AC000172D0030F800F900031308001830031741
:100AD0008D0002308F000313D622031767088400AD
:100AE0008313681883170313122322300C1E762DEC
:100AF00099000D300C1E7A2D990004300317EB007D
:100B0000C830EC000313C2220317EB0B802D6908D9
:100B1000840083136A188317031312230430031706
:100B2000EB00C830EC000313C2220317EB0B912D2E
:100B30001A3003130C1E9A2D99000800031767083A
:100B4000FA006608840083137A1883178008031953
:100B5000D22D6708FA006608840083137A18831779
:100B60000008E80065088D0068088C0083168C1367
:100B70000C15831203130B08F7008B13831603174E
:100B800055308D00AA308D008C148C18C52D0C1199
:100B90007708831203138B040317E50AE60A031987
:100BA000E70A9F2D0313080003179C0174309D0072
:100BB00068309E0065309F006D30A0003030A1008D
:100BC000A201B501A030B4000130B7001D30B6005D
:100BD0000313162579080317AC007808AB00AB089F
:100BE000031DF52DAC080319F82D0130F800DD2F99
:100BF00078309D006F309E0061309F003030A00043
:100C0000A101B501A030B4000130B7001D30B6001D
:100C10000313162579080317AC007808AB00AB085E
:100C2000031D152EAC080319182E0230F800DD2F15
:100C300064309D006F309E0069309F006D30A000D1
:100C40006B30A100A201B501A030B4000130B700A3
:100C50001D30B6000313162579080317AC00780879
:100C6000AB00AB08031D372EAC0803193A2E033036
:100C7000F800DD2F6B309D0074309E009F006B30BC
:100C8000A0003130A100A201B501A030B4000130B4
:100C9000B7001D30B6000313162579080317AC0002
:100CA0007808AB00AB08031D582EAC0803195B2E67
:100CB0000430F800DD2F6B309D0074309E009F00E3
:100CC0006B30A0003230A100A201B501A030B40009
:100CD0000130B7001D30B60003131625790803173D
:100CE000AC007808AB00AB08031D792EAC080319E3
:100CF0007C2E0530F800DD2FF9010730F8001D309B
:100D00008400831779080313D3208000F90A840A2A
:100D1000F80B8B2E8D2E0317822E0317B501A030F2
:100D2000B4000130B7001D30B60003131625790852
:100D30000317AC007808AB00AB08031DA22EAC086B
:100D40000319B62E6030DD00DF01E030DE00063032
:100D5000E00003131D240317E8016030E700EA01F7
:100D6000E030E90003136625DA2F031764309D0095
:100D700073309E009F006430A0007430A100A20177
:100D8000B501A030B4000130B7001D30B600031328
:100D9000162579080317AC007808AB00AB08031DD3
:100DA000D42EAC080319562FA901AA0129308400BA
:100DB0008313290884072A0803139720800000382A
:100DC0000319E72E0317AA0AA90AD62E0313033024
:100DD000F0000130F1007108043C031C4B2FBA30C5
:100DE0007107840083130008313C031D422F01303A
:100DF0007107F700770E0317A900F030A90529083D
:100E0000DD00DF01D030DE000F30E00003131D24D1
:100E100003179C011C080E3C031C402F7008F00AAD
:100E2000293EF800FA010318FA0A7808A9007A089E
:100E3000AA00D0301C07840083130008AB002908E7
:100E4000840083132A1883172B088000D0301C07D6
:100E5000840083130008203C031D3E2F01307002E4
:100E6000293E840083133B3080007008F00A293E3D
:100E700084008313203080000F309C009C0A0A2FCE
:100E8000482F031329307007840083138001031750
:100E9000F10A0313EB2E0317E8016030E700EA01C3
:100EA0002930E90003136625DA2F0317F90107300B
:100EB000F8001D308400831779080313CA218000CD
:100EC000F90A840AF80B652F672F03175C2F0317A5
:100ED000B501A030B4000130B7001D30B6000313D7
:100EE000162579080317AC007808AB00AB08031D82
:100EF0007C2FAC080319BF2F0130F1007108043CAE
:100F0000031C8A2FBA3071078400831330308000AD
:100F1000F10A7E2FE501E701BA30E60003139E25B2
:100F20000317A901AA012930840083132908840723
:100F30002A0803135821800000380319A42F03172F
:100F4000AA0AA90A932F03132130AF00F90109302F
:100F5000F8001D3084008317790858218000F90AB1
:100F6000840AF80BAC2F0317E8016030E70001306A
:100F7000EA001D30E90003136625DA2F0317F90193
:100F80000C30F8001D308400831779080313872084
:100F90008000F90A840AF80BCE2FD02F0317C52F33
:100FA0000317E8016030E7000130EA001D30E90076
:100FB000031366250030F800031703138A110A167D
:100FC000B6288316A001F10171080F3C031CF02F15
:100FD000603071078400831320308000F10AE42F11
:0E0FE000FB01FD01FE0183128A110A16112980
:101000000317E601A030E5001A30E7006D30E80074
:101010000130E9008A110313FF238A157808F500CF
:101020000317E601A030E5001A30E7003B30E80086
:101030000130E9008A110313FF238A157808F600AE
:10104000F10171080E3C031C2D28C030710784008B
:10105000831320308000F10A2128760875020318D6
:101060001D2901307507F100760871020318512817
:1010700075087102FF3EC03E0317E500E601031844
:10108000E60AA0307107840083130008E7006508B2
:10109000840083136618831767088000F10A03131E
:1010A0003428FC010130F1007108043C031C66285F
:1010B000BA307107840083130008303C031D642894
:1010C0007108FC000530F100F10A5428FC080319EE
:1010D000022901307C02FC3E0318AC28043E202982
:1010E00020300317E500E701C030E6008A11031342
:1010F0009E258A1531308316BB008312AC28303010
:101100000317E500E701C030E6008A1103139E25AE
:101110008A1531308316BC008312AC284030031787
:10112000E500E701C030E6008A1103139E258A1509
:1011300031308316BD008312AC2850300317E50010
:10114000E701C030E6008A1103139E258A1531306D
:101150008316BE008312AC280317E501E701BA30FD
:10116000E6008A1103139E258A150317E501E6019F
:101170002930840083136508840766088A110313E5
:101180004B218A15800000380319CB280317E60A83
:10119000E50AB82803130830F1007108163C031C57
:1011A000F628293071070317E500E6010318E60A5F
:1011B00008307102C03E840083130008E700650810
:1011C000840083136618831767088000293071072D
:1011D000840083130008203C031DF3282930710785
:1011E000840083138001F10A0313CD280317E8015B
:1011F0006030E700EA012930E9008A11031366250F
:101200008A151D29F9014930F8001C308400831724
:1012100079088A11DE208A158000F90A840AF80B01
:1012200008290317E8016030E7000130EA001C30AC
:10123000E9008A11031366258A158A110A16E72820
:101240000A148A100A11820770287F288E289D2888
:1012500003179C01E601A030E5001A30E700613079
:10126000E8000130E9008A110313FF238A1578088A
:10127000F5000317E601A030E5001A30E7003B3027
:10128000E8000130E9008A110313FF238A1578086A
:10129000F600F10171080E3C031C5629C03071079D
:1012A0008400831320308000F10A4A2976087502F1
:1012B0000318422A01307507F100760871020318FD
:1012C0007E2975087102FF3EC03EF800FA0103183E
:1012D000FA0A78080317B6007A08B700A030710739
:1012E000840083130008B80036088400831337187D
:1012F000831738088000F10A03135D29FC010130CF
:10130000F1007108043C031CCA29BA30710784003B
:1013100083130008313C031DC82901307107F70011
:10132000770E0317B600F030B6053608DD00DF0192
:10133000D030DE000F30E0008A1103131D248A151F
:1013400003179C011C080E3C031CC729C0301C0756
:10135000840083130008B600D0301C078400831378
:1013600000083602031DC529D0301C0784008313F2
:101370000008203C031DC529BA307107840083137F
:10138000303080007108FC00C7299C0AA229031391
:10139000F10A8129FC08031DE929F9011930F80037
:1013A0001D308400831779088A112E218A15800048
:1013B000F90A840AF80BD3290317E8016030E70023
:1013C0000130EA001D30E9008A11031366258A15F1
:1013D000422A0317E501E701BA30E6008A11031338
:1013E0009E258A150317B601B7012930840083139F
:1013F0003608840737088A11031358218A1580009C
:1014000000380319082A0317B70AB60AF529031387
:101410000830F1007108163C031C372A2930710787
:10142000F800FA010318FA0A78080317B6007A08D8
:10143000B70008307102C03E840083130008B80072
:101440003608840083133718831738088000293042
:101450007107840083130008203C031D342A2930BF
:101460007107840083138001F10A03130A2A03170A
:10147000E8016030E700EA012930E9008A1103132E
:1014800066258A158A110A16E72803179C01E601CA
:10149000A030E5001A30E7006B30E8000130E900C9
:1014A0008A110313FF238A157808F5000317E60154
:1014B000A030E5001A30E7002A30E8000130E900EA
:1014C0008A110313FF238A157808F600760875023F
:1014D00003182F2B60300317DD00DF01E030DE0042
:1014E0000630E0008A1103131D248A1503179C019E
:1014F0001C08053C031C8E2A1C087507013EA03EF3
:10150000840083130008DD00E0301C07840083138F
:1015100000085D02031D8E2A9C0A782A1C08063CDE
:10152000031D102BE601A030E5001A30E7003B3028
:10153000E8000130E9008A110313FF238A157808B7
:10154000F5007608750203179C001C08073C031D74
:10155000EF2A9C011C08053C031CC92AE0301C072B
:10156000F800FA010318FA0A7808DD007A08DE00AC
:101570001C087607013EA03E840083130008DF00AC
:101580005D08840083135E1883175F0880009C0A3F
:10159000AA2A6030E500E701E030E6008A11031373
:1015A0009E258A15F9011830F8001D308400831734
:1015B00079088A1195218A158000F90A840AF80BA6
:1015C000D82A0317E8016030E7000130EA001D3037
:1015D000E9008A11031366258A150E2B0317F901FA
:1015E0001B30F80035308400831779088A11031303
:1015F00065218A158000F90A840AF80B002B022B5A
:101600000317F52A0317E8016030E7000130EA000C
:101610003530E9008A11031366258A152F2B03172D
:10162000F9010D30F80050308400831779088A11D1
:10163000031384218A158000F90A840AF80B212BF0
:10164000232B0317162B0317E8016030E700013046
:10165000EA005030E9008A11031366258A158A11C1
:101660000A16E72804300317B300C830EC008A11CB
:101670000313C2228A150317B30B352BB50129308A
:10168000B4003208B7003108B6008A1103131625DA
:101690008A1579088316EA007808E900F008031D26
:1016A000532B8312322BE908031D592BEA08031927
:1016B0005C2B0130F8005E2B0030F800831208002C
:1016C00003179C01F9010A30F8001D3084008317CC
:1016D00079088A1103134D208A158000F90A840ABB
:1016E000F80B732B752B0317682B01300317B2000F
:1016F0001D30B1008A11031330238A154F300317B0
:101700009D004B309E009F010130B2001D30B100A2
:1017100003133223F8080319222CF9011230F800C0
:101720001D308400831779088A115B208A15800098
:10173000F90A840AF80B932B01300317B2001D300D
:10174000B1008A11031330238A1504300317AF0048
:10175000C830EC008A110313C2228A150317AF0B9D
:10176000A82B9C012B309D0043309E0055309F00DC
:101770005330A0004430A100A2010130B2001D305E
:10178000B10003133223780BC62BD22BF0010317C1
:101790009C0A1C080A3C031DD02B0313D22B0317F1
:1017A000B22B031303171C08093C031C032C09303C
:1017B000F10071080E3C031CEC2BC0307107840053
:1017C00083130008203C031DEA2BC03071078400FE
:1017D00083138001F10AD92B4B300313A900543035
:1017E000AA00AB004B30AC003130AD000317E8016C
:1017F000C030E700EA012930E9008A1103136625A9
:101800008A15222C0317F9011130F8001D308400CD
:10181000831779088A11031338208A158000F90A82
:10182000840AF80B142C162C0317092C0317E80153
:10183000C030E7000130EA001D30E9008A110313CF
:1018400066258A15080003179C01F9010A30F80083
:101850001D308400831779088A1103134D208A15DF
:101860008000F90A840AF80B362C382C03172B2C2D
:1018700001300317B2001D30B1008A110313302369
:101880008A154F3003179D004B309E009F01013099
:10189000B2001D30B10003133223F8080319E52C00
:1018A000F9011230F8001D308400831779088A117D
:1018B00071208A158000F90A840AF80B562C013031
:1018C0000317B2001D30B1008A11031330238A15AB
:1018D00004300317AF00C830EC008A110313C22292
:1018E0008A150317AF0B6B2C9C012B309D004330E6
:1018F0009E0055309F005330A0004430A100A2014B
:101900000130B2001D30B10003133223780B892C53
:10191000952CF00103179C0A1C080A3C031D932C0C
:101920000313952C0317752C031303171C08093C8C
:10193000031CC62C0930F10071080E3C031CAF2CAF
:10194000C0307107840083130008203C031DAD2CB8
:10195000C0307107840083138001F10A9C2C4B3046
:101960000313A9005430AA00AB004B30AC00323056
:10197000AD000317E801C030E700EA012930E900B3
:101980008A11031366258A15E52C0317F901113016
:10199000F8001D308400831779088A11031338205A
:1019A0008A158000F90A840AF80BD72CD92C031762
:1019B000CC2C0317E801C030E7000130EA001D30ED
:1019C000E9008A11031366258A15080003179C0194
:1019D00064309D006F309E0069309F006130A00030
:1019E0006430A100A201B501A030B4000130B700FD
:1019F0001D30B6008A11031316258A1579080317BE
:101A0000B5007808B400B408031D092DB508031902
:101A1000A92DE601A030E5001A30E7006430E800A7
:101A20000230E9008A110313FF238A157808F500B4
:101A30000317E601A030E5001A30E7003B30E8006C
:101A40000130E9008A110313FF238A157808F60094
:101A5000760875020318A72D03179C011C08053C86
:101A6000031C442D1C087507013EA03E840083130F
:101A70000008B200E0301C07840083130008320223
:101A8000031D442D9C0A2E2D1C08063C031D882D89
:101A90001030DD00DF01D030DE000F30E0008A11B1
:101AA00003131D248A1510300317E500E701C03029
:101AB000E6008A1103139E258A157C0E0317B200D7
:101AC000F030B2053208E500E701D030E6008A11B7
:101AD00003139E258A15F9011530F8001D30840086
:101AE000831779088A11B1218A158000F90A840ABE
:101AF000F80B712D0317E8016030E7000130EA00B0
:101B00001D30E9008A11031366258A15A72D0317D6
:101B1000F9010D30F8001D308400831779088A110F
:101B2000031384218A158000F90A840AF80B992D81
:101B30009B2D03178E2D0317E8016030E70001305D
:101B4000EA001D30E9008A11031366258A15102E5C
:101B500003176B309D0074309E009F006B30A00017
:101B60003130A100A201B501A030B4000130B700AE
:101B70001D30B6008A11031316258A15790803173C
:101B8000B5007808B400B408031DC92DB5080319C1
:101B9000CD2D0130F800132E112E6B309D007430C6
:101BA0009E009F006B30A0003230A100A201B50161
:101BB000A030B4000130B7001D30B6008A11031305
:101BC00016258A1579080317B5007808B400B408FB
:101BD000031DED2DB5080319F12D0230F800132E69
:101BE000112EF9010C30F8001D308400831779089C
:101BF0008A11031387208A158000F90A840AF80BDA
:101C0000022E042E0317F72D0317E8016030E700BA
:101C10000130EA001D30E9008A11031366258A1598
:101C200003170030F80003138A110A16EF2810304A
:101C30000317DD00DF01D030DE000F30E0008A1135
:101C400003131D248A15F10171080E3C031C372E65
:101C5000D0307107840083130008203C031D352E0B
:101C6000D0307107840083138001F10A242E0317FA
:101C70009F0160309E009D0129309C001E08840059
:101C800083131F1883170008A0001C088400831307
:101C90001D1883172008800080080319522E9C0A03
:101CA0009E0A3E2E9D0129309C009F01A0309E007F
:101CB0001D08A1001C08A0002108FA0020088400CB
:101CC00083137A188317800803196A2EA00A031950
:101CD000A10A5C2E1F08FA001E08840083137A18DC
:101CE000831780080319892E1E08840083131F1888
:101CF00083170008A4002008840083132118831789
:101D000024088000A00A0319A10A9E0A03199F0A49
:101D10006A2E2008840083132118831780011C0871
:101D2000F8001D08F900E801D030E700EA01293089
:101D3000E9008A11031366258A158A110A160D29EE
:101D4000F9010830F8001D308400831779088A11E2
:101D5000D5218A158000F90A840AF80BA62E0130D5
:101D60000317B2001D30B1008A11031330238A1506
:101D7000F9011130F8001D308400831779088A11A9
:101D8000E1218A158000F90A840AF80BBE2E013081
:101D90000317B2001D30B10003133223F8080319F2
:101DA000872F0317E6012930E5003730E70022309E
:101DB000E8000130E9008A110313FF238A1578082F
:101DC000F5000317E6012930E5003730E70022303F
:101DD000E8000230E9008A110313FF238A1578080E
:101DE000F600760875020318872F01307507F10099
:101DF000760871020318152F75087102FF3E603EC8
:101E00000317AE00AF010318AF0A29307107840031
:101E100083130008B0002E08840083132F18831743
:101E200030088000F10A0313F82E0317DD01DF01EB
:101E3000BA30DE000530E0008A1103131D248A1534
:101E4000F1017108043C031C662FBA30710784004D
:101E500083130008313C031D642F01307107F70024
:101E6000770E0317AE00F030AE052E08DD00DF015F
:101E7000D030DE000F30E0008A1103131D248A15D4
:101E800003179C011C080E3C031C632F60301C07C9
:101E9000840083130008AE00D0301C078400831335
:101EA00000082E02031D602FD0301C07840083130E
:101EB0000008203C031D5F2F0130F8008A2F612F9E
:101EC000632F9C0A422F0313F10A212F04300317BA
:101ED000AE00C830EC008A110313C2228A15031722
:101EE000AE0B692F1D308D0002308F008A11031355
:101EF000D6228A1504300317AE00C830EC008A11D0
:101F00000313C2228A150317AE0B7D2F0313003073
:101F1000F800031703138A110A165129061004301A
:101F200003179C00C830EC008A110313C2228A15E3
:101F300003179C0B922F15308D0002308F008A11F1
:101F40000313D6228A15143003179C00FA30EC00D4
:101F50008A110313C2228A1503179C0BA62F0313A1
:081F600006148A110A16592922
:10200000840183131F308305831603178715083057
:102010000313990002309A00A63098009030831282
:102020009800F001F201F301F401FB01FC018316B9
:1020300003170908C039890003131F129F120030CB
:102040000317880083128701880189010313A70100
:10205000A801F030831686008710071187110F3012
:1020600083128600861087100715871583160317BD
:102070000908C039890003131F129F12003003178B
:102080008800831203131F10941201309400003053
:10209000831694000108C03907388100831290012B
:1020A0000030F8009200003083169200831203176C
:1020B00087018801890183160313970183128B1608
:1020C00083168C16C03083128B0483168C160A126A
:1020D0008312BA2B0A160A12EA2B0A1601300317CA
:1020E0009C000A12031359230A1604308316EC00CD
:1020F000FA3083120317EC000A120313C2220A16E5
:102100008316EC0B7828B730831203178D0002304A
:102110008F000A120313D6220A1604308316EC002D
:10212000C83083120317EC000A120313C2220A16E6
:102130008316EC0B90280430EC00FA30831203175E
:10214000EC000A120313C2220A168316EC0B9D2818
:10215000730BAB284B290A128312462C0A16F80877
:1021600003190F297C0BE8280A12D42D0A167808C7
:10217000013A0319C828033A0319CE28013A031972
:10218000D428073A0319DA28013A0319E028E62887
:102190000A128A1500280A168A11E7280A128A15D7
:1021A00028290A168A11E7280A128A15452A0A16CA
:1021B0008A11E7280A128A1560230A168A11E7286D
:1021C0000A128A1523240A168A11E728E7280F29FC
:1021D0007C08013C031807290A128A15E62C0A1606
:1021E0008A117808013A0319F928033A0319FF28DC
:1021F00005290A128A1560230A168A1106290A126D
:102200008A1523240A168A11062906290F29FC0893
:10221000031D0F290A128A15172E0A168A110A128F
:10222000E12F0A16F9010A30F800103084008317F4
:1022300079080A12B5200A168000F90A840AF80BF8
:10224000182901300317B2001030B1000A1203132D
:1022500030230A160130F300F20A72080A3C031D0B
:102260004929F9010C30F8001030840083177908EF
:102270000A12C3200A168000F90A840AF80B3729CB
:1022800001300317B2001030B1000A1203133023DB
:102290000A165B2983168312061A5B290A128A150D
:1022A000A02E0A168A11F80803195B290A128A154A
:0C22B0008E2F0A168A1183169B286300EB
:0A42000031003000300030003000C3
:1042200030003100360036003300390031003500EF
:104230003300300038002000200020002000200043
:0C42C000310031003100310031003100CC
:04400E00F22CFF3F52
:00000001FF
;PIC16F887
;CRC=00C0  CREATED="13-Oct-15 15:26"
